{
  "contractName": "FundTransfer",
  "abi": [
    {
      "inputs": [],
      "stateMutability": "nonpayable",
      "type": "constructor"
    },
    {
      "inputs": [],
      "name": "gasFee",
      "outputs": [
        {
          "internalType": "uint256",
          "name": "",
          "type": "uint256"
        }
      ],
      "stateMutability": "view",
      "type": "function",
      "constant": true
    },
    {
      "inputs": [],
      "name": "deposit",
      "outputs": [],
      "stateMutability": "payable",
      "type": "function",
      "payable": true
    },
    {
      "inputs": [
        {
          "internalType": "uint256",
          "name": "amount",
          "type": "uint256"
        }
      ],
      "name": "withdraw",
      "outputs": [],
      "stateMutability": "nonpayable",
      "type": "function"
    },
    {
      "inputs": [],
      "name": "getBalance",
      "outputs": [
        {
          "internalType": "uint256",
          "name": "",
          "type": "uint256"
        }
      ],
      "stateMutability": "view",
      "type": "function",
      "constant": true
    },
    {
      "inputs": [
        {
          "internalType": "address",
          "name": "user",
          "type": "address"
        }
      ],
      "name": "checkPermission",
      "outputs": [
        {
          "internalType": "bool",
          "name": "",
          "type": "bool"
        }
      ],
      "stateMutability": "view",
      "type": "function",
      "constant": true
    },
    {
      "inputs": [
        {
          "internalType": "address",
          "name": "user",
          "type": "address"
        }
      ],
      "name": "givePermission",
      "outputs": [],
      "stateMutability": "nonpayable",
      "type": "function"
    },
    {
      "inputs": [
        {
          "internalType": "address",
          "name": "user",
          "type": "address"
        }
      ],
      "name": "removePermission",
      "outputs": [],
      "stateMutability": "nonpayable",
      "type": "function"
    },
    {
      "inputs": [],
      "name": "isOwner",
      "outputs": [
        {
          "internalType": "bool",
          "name": "",
          "type": "bool"
        }
      ],
      "stateMutability": "view",
      "type": "function",
      "constant": true
    },
    {
      "inputs": [
        {
          "internalType": "address",
          "name": "to",
          "type": "address"
        },
        {
          "internalType": "uint256",
          "name": "amount",
          "type": "uint256"
        }
      ],
      "name": "transfer",
      "outputs": [],
      "stateMutability": "nonpayable",
      "type": "function"
    },
    {
      "inputs": [],
      "name": "getOwner",
      "outputs": [
        {
          "internalType": "address",
          "name": "",
          "type": "address"
        }
      ],
      "stateMutability": "view",
      "type": "function",
      "constant": true
    }
  ],
  "bytecode": "0x6080604052655af3107a400060035534801561001a57600080fd5b50336000806101000a81548173ffffffffffffffffffffffffffffffffffffffff021916908373ffffffffffffffffffffffffffffffffffffffff16021790555060018060003373ffffffffffffffffffffffffffffffffffffffff1673ffffffffffffffffffffffffffffffffffffffff16815260200190815260200160002060006101000a81548160ff0219169083151502179055506112d0806100c16000396000f3fe6080604052600436106100915760003560e01c8063893d20e811610059578063893d20e81461017b5780638f32d59b146101a6578063a9059cbb146101d1578063d0e30db0146101fa578063e074bb471461020457610091565b806312065fe0146100965780632e1a7d4d146100c15780633d391f70146100ea57806357d3a78614610113578063658612e914610150575b600080fd5b3480156100a257600080fd5b506100ab61022d565b6040516100b89190610d08565b60405180910390f35b3480156100cd57600080fd5b506100e860048036038101906100e39190610d54565b610356565b005b3480156100f657600080fd5b50610111600480360381019061010c9190610ddf565b610504565b005b34801561011f57600080fd5b5061013a60048036038101906101359190610ddf565b6105ec565b6040516101479190610e27565b60405180910390f35b34801561015c57600080fd5b5061016561075c565b6040516101729190610d08565b60405180910390f35b34801561018757600080fd5b50610190610762565b60405161019d9190610e51565b60405180910390f35b3480156101b257600080fd5b506101bb61078b565b6040516101c89190610e27565b60405180910390f35b3480156101dd57600080fd5b506101f860048036038101906101f39190610e6c565b6107e2565b005b610202610a87565b005b34801561021057600080fd5b5061022b60048036038101906102269190610ddf565b610b78565b005b6000600160003373ffffffffffffffffffffffffffffffffffffffff1673ffffffffffffffffffffffffffffffffffffffff16815260200190815260200160002060009054906101000a900460ff16806102d2575060008054906101000a900473ffffffffffffffffffffffffffffffffffffffff1673ffffffffffffffffffffffffffffffffffffffff163373ffffffffffffffffffffffffffffffffffffffff16145b610311576040517f08c379a000000000000000000000000000000000000000000000000000000000815260040161030890610f2f565b60405180910390fd5b600260003373ffffffffffffffffffffffffffffffffffffffff1673ffffffffffffffffffffffffffffffffffffffff16815260200190815260200160002054905090565b600160003373ffffffffffffffffffffffffffffffffffffffff1673ffffffffffffffffffffffffffffffffffffffff16815260200190815260200160002060009054906101000a900460ff166103e2576040517f08c379a00000000000000000000000000000000000000000000000000000000081526004016103d990610fc1565b60405180910390fd5b600260003373ffffffffffffffffffffffffffffffffffffffff1673ffffffffffffffffffffffffffffffffffffffff16815260200190815260200160002054811115610464576040517f08c379a000000000000000000000000000000000000000000000000000000000815260040161045b9061102d565b60405180910390fd5b80600260003373ffffffffffffffffffffffffffffffffffffffff1673ffffffffffffffffffffffffffffffffffffffff16815260200190815260200160002060008282546104b3919061107c565b925050819055503373ffffffffffffffffffffffffffffffffffffffff166108fc829081150290604051600060405180830381858888f19350505050158015610500573d6000803e3d6000fd5b5050565b60008054906101000a900473ffffffffffffffffffffffffffffffffffffffff1673ffffffffffffffffffffffffffffffffffffffff163373ffffffffffffffffffffffffffffffffffffffff1614610592576040517f08c379a000000000000000000000000000000000000000000000000000000000815260040161058990611122565b60405180910390fd5b60018060008373ffffffffffffffffffffffffffffffffffffffff1673ffffffffffffffffffffffffffffffffffffffff16815260200190815260200160002060006101000a81548160ff02191690831515021790555050565b60008173ffffffffffffffffffffffffffffffffffffffff163373ffffffffffffffffffffffffffffffffffffffff160361067557600160008373ffffffffffffffffffffffffffffffffffffffff1673ffffffffffffffffffffffffffffffffffffffff16815260200190815260200160002060009054906101000a900460ff169050610757565b60008054906101000a900473ffffffffffffffffffffffffffffffffffffffff1673ffffffffffffffffffffffffffffffffffffffff163373ffffffffffffffffffffffffffffffffffffffff160361071c57600160008373ffffffffffffffffffffffffffffffffffffffff1673ffffffffffffffffffffffffffffffffffffffff16815260200190815260200160002060009054906101000a900460ff169050610757565b6040517f08c379a000000000000000000000000000000000000000000000000000000000815260040161074e90610fc1565b60405180910390fd5b919050565b60035481565b60008060009054906101000a900473ffffffffffffffffffffffffffffffffffffffff16905090565b60008060009054906101000a900473ffffffffffffffffffffffffffffffffffffffff1673ffffffffffffffffffffffffffffffffffffffff163373ffffffffffffffffffffffffffffffffffffffff1614905090565b600160003373ffffffffffffffffffffffffffffffffffffffff1673ffffffffffffffffffffffffffffffffffffffff16815260200190815260200160002060009054906101000a900460ff1661086e576040517f08c379a000000000000000000000000000000000000000000000000000000000815260040161086590610fc1565b60405180910390fd5b600260003373ffffffffffffffffffffffffffffffffffffffff1673ffffffffffffffffffffffffffffffffffffffff168152602001908152602001600020548111156108f0576040517f08c379a00000000000000000000000000000000000000000000000000000000081526004016108e79061102d565b60405180910390fd5b600260003373ffffffffffffffffffffffffffffffffffffffff1673ffffffffffffffffffffffffffffffffffffffff168152602001908152602001600020546003548261093e9190611142565b111561097f576040517f08c379a0000000000000000000000000000000000000000000000000000000008152600401610976906111e8565b60405180910390fd5b80600260003373ffffffffffffffffffffffffffffffffffffffff1673ffffffffffffffffffffffffffffffffffffffff16815260200190815260200160002060008282546109ce919061107c565b9250508190555080600260008473ffffffffffffffffffffffffffffffffffffffff1673ffffffffffffffffffffffffffffffffffffffff1681526020019081526020016000206000828254610a249190611142565b92505081905550600354600260003373ffffffffffffffffffffffffffffffffffffffff1673ffffffffffffffffffffffffffffffffffffffff1681526020019081526020016000206000828254610a7c919061107c565b925050819055505050565b600160003373ffffffffffffffffffffffffffffffffffffffff1673ffffffffffffffffffffffffffffffffffffffff16815260200190815260200160002060009054906101000a900460ff16610b13576040517f08c379a0000000000000000000000000000000000000000000000000000000008152600401610b0a90610fc1565b60405180910390fd5b60035434610b21919061107c565b600260003373ffffffffffffffffffffffffffffffffffffffff1673ffffffffffffffffffffffffffffffffffffffff1681526020019081526020016000206000828254610b6f9190611142565b92505081905550565b60008054906101000a900473ffffffffffffffffffffffffffffffffffffffff1673ffffffffffffffffffffffffffffffffffffffff163373ffffffffffffffffffffffffffffffffffffffff1614610c06576040517f08c379a0000000000000000000000000000000000000000000000000000000008152600401610bfd90611122565b60405180910390fd5b60008054906101000a900473ffffffffffffffffffffffffffffffffffffffff1673ffffffffffffffffffffffffffffffffffffffff168173ffffffffffffffffffffffffffffffffffffffff1603610c94576040517f08c379a0000000000000000000000000000000000000000000000000000000008152600401610c8b9061127a565b60405180910390fd5b6000600160008373ffffffffffffffffffffffffffffffffffffffff1673ffffffffffffffffffffffffffffffffffffffff16815260200190815260200160002060006101000a81548160ff02191690831515021790555050565b6000819050919050565b610d0281610cef565b82525050565b6000602082019050610d1d6000830184610cf9565b92915050565b600080fd5b610d3181610cef565b8114610d3c57600080fd5b50565b600081359050610d4e81610d28565b92915050565b600060208284031215610d6a57610d69610d23565b5b6000610d7884828501610d3f565b91505092915050565b600073ffffffffffffffffffffffffffffffffffffffff82169050919050565b6000610dac82610d81565b9050919050565b610dbc81610da1565b8114610dc757600080fd5b50565b600081359050610dd981610db3565b92915050565b600060208284031215610df557610df4610d23565b5b6000610e0384828501610dca565b91505092915050565b60008115159050919050565b610e2181610e0c565b82525050565b6000602082019050610e3c6000830184610e18565b92915050565b610e4b81610da1565b82525050565b6000602082019050610e666000830184610e42565b92915050565b60008060408385031215610e8357610e82610d23565b5b6000610e9185828601610dca565b9250506020610ea285828601610d3f565b9150509250929050565b600082825260208201905092915050565b7f596f7520646f6e27742068617665207065726d697373696f6e20746f2076696560008201527f77207468652062616c616e63652e000000000000000000000000000000000000602082015250565b6000610f19602e83610eac565b9150610f2482610ebd565b604082019050919050565b60006020820190508181036000830152610f4881610f0c565b9050919050565b7f596f7520646f6e27742068617665207065726d697373696f6e20746f2070657260008201527f666f726d2074686973206f7065726174696f6e2e000000000000000000000000602082015250565b6000610fab603483610eac565b9150610fb682610f4f565b604082019050919050565b60006020820190508181036000830152610fda81610f9e565b9050919050565b7f496e73756666696369656e742062616c616e63652e0000000000000000000000600082015250565b6000611017601583610eac565b915061102282610fe1565b602082019050919050565b600060208201905081810360008301526110468161100a565b9050919050565b7f4e487b7100000000000000000000000000000000000000000000000000000000600052601160045260246000fd5b600061108782610cef565b915061109283610cef565b92508282039050818111156110aa576110a961104d565b5b92915050565b7f4f6e6c7920746865206f776e65722063616e2063616c6c20746869732066756e60008201527f6374696f6e2e0000000000000000000000000000000000000000000000000000602082015250565b600061110c602683610eac565b9150611117826110b0565b604082019050919050565b6000602082019050818103600083015261113b816110ff565b9050919050565b600061114d82610cef565b915061115883610cef565b92508282019050808211156111705761116f61104d565b5b92915050565b7f496e73756666696369656e742062616c616e636520746f20636f76657220747260008201527f616e7366657220616d6f756e7420616e6420676173206665652e000000000000602082015250565b60006111d2603a83610eac565b91506111dd82611176565b604082019050919050565b60006020820190508181036000830152611201816111c5565b9050919050565b7f546865206f776e65722063616e6e6f742068617665207065726d697373696f6e60008201527f73207265766f6b65642e00000000000000000000000000000000000000000000602082015250565b6000611264602a83610eac565b915061126f82611208565b604082019050919050565b6000602082019050818103600083015261129381611257565b905091905056fea26469706673582212209844939ec97e5041afee98f95aa41a3f97a67aafe34ff4aea96099d019fa07b464736f6c63430008130033",
  "immutableReferences": {},
  "source": "// SPDX-License-Identifier: MIT\r\npragma solidity ^0.8.19;\r\n\r\ncontract FundTransfer {\r\n    address private owner;\r\n    mapping(address => bool) private permissions;\r\n    mapping(address => uint256) private balances;\r\n    uint256 public gasFee = 100000000000000; // 0.0001 ether\r\n\r\n    modifier onlyOwner() {\r\n        require(msg.sender == owner, \"Only the owner can call this function.\");\r\n        _;\r\n    }\r\n\r\n    modifier onlyPermitted() {\r\n        require(permissions[msg.sender], \"You don't have permission to perform this operation.\");\r\n        _;\r\n    }\r\n\r\n    constructor() {\r\n        owner = msg.sender;\r\n        permissions[msg.sender] = true;\r\n    }\r\n\r\n    function deposit() public payable onlyPermitted {\r\n        balances[msg.sender] += msg.value - gasFee;\r\n    }\r\n\r\n    function withdraw(uint256 amount) public onlyPermitted {\r\n        require(amount <= balances[msg.sender], \"Insufficient balance.\");\r\n\r\n        balances[msg.sender] -= amount;\r\n        payable(msg.sender).transfer(amount);\r\n    }\r\n\r\n    function getBalance() public view returns (uint256) {\r\n        require(permissions[msg.sender] || msg.sender == owner, \"You don't have permission to view the balance.\");\r\n        return balances[msg.sender];\r\n    }\r\n\r\n    function checkPermission(address user) public view returns (bool) {\r\n    if (msg.sender == user) {\r\n        return permissions[user];\r\n    } else if (msg.sender == owner) {\r\n        return permissions[user];\r\n    } else {\r\n        revert(\"You don't have permission to perform this operation.\");\r\n    }\r\n    }\r\n\r\n    function givePermission(address user) public onlyOwner {\r\n        permissions[user] = true;\r\n    }\r\n\r\n    function removePermission(address user) public onlyOwner {\r\n        require(user != owner, \"The owner cannot have permissions revoked.\");\r\n        permissions[user] = false;\r\n    }\r\n\r\n    function isOwner() public view returns (bool) {\r\n        return msg.sender == owner;\r\n    }\r\n\r\n    function transfer(address to, uint256 amount) public onlyPermitted {\r\n    require(amount <= balances[msg.sender], \"Insufficient balance.\");\r\n    require(amount +gasFee<= balances[msg.sender] , \"Insufficient balance to cover transfer amount and gas fee.\");\r\n\r\n    balances[msg.sender] -= amount;\r\n    balances[to] += amount;\r\n    balances[msg.sender] -= gasFee;\r\n}\r\n    function getOwner() public view returns (address) {\r\n        return owner;\r\n    }\r\n\r\n\r\n}\r\n",
  "sourcePath": "D:\\web3\\transfer_balance\\contracts\\Transfer.sol",
  "compiler": {
    "name": "solc",
    "version": "0.8.19+commit.7dd6d404.Emscripten.clang"
  },
  "schemaVersion": "3.4.14",
  "updatedAt": "2023-06-24T01:24:04.845Z",
  "networkType": "ethereum",
  "devdoc": {
    "kind": "dev",
    "methods": {},
    "version": 1
  },
  "userdoc": {
    "kind": "user",
    "methods": {},
    "version": 1
  }
}